{
  "_format": "hh-sol-artifact-1",
  "contractName": "Transactions",
  "sourceName": "contracts/Transactions.sol",
  "abi": [
    {
      "inputs": [],
      "stateMutability": "nonpayable",
      "type": "constructor"
    },
    {
      "anonymous": false,
      "inputs": [
        {
          "indexed": true,
          "internalType": "address",
          "name": "sender",
          "type": "address"
        },
        {
          "indexed": true,
          "internalType": "address",
          "name": "receiver",
          "type": "address"
        },
        {
          "indexed": false,
          "internalType": "uint256",
          "name": "amount",
          "type": "uint256"
        },
        {
          "indexed": false,
          "internalType": "string",
          "name": "remark",
          "type": "string"
        },
        {
          "indexed": false,
          "internalType": "uint256",
          "name": "timestamp",
          "type": "uint256"
        }
      ],
      "name": "Transfer",
      "type": "event"
    },
    {
      "inputs": [],
      "name": "getAllTransactions",
      "outputs": [
        {
          "components": [
            {
              "internalType": "address",
              "name": "sender",
              "type": "address"
            },
            {
              "internalType": "address",
              "name": "receiver",
              "type": "address"
            },
            {
              "internalType": "uint256",
              "name": "amount",
              "type": "uint256"
            },
            {
              "internalType": "string",
              "name": "remark",
              "type": "string"
            },
            {
              "internalType": "uint256",
              "name": "timestamp",
              "type": "uint256"
            }
          ],
          "internalType": "struct Transactions.TransferStruct[]",
          "name": "",
          "type": "tuple[]"
        }
      ],
      "stateMutability": "view",
      "type": "function"
    },
    {
      "inputs": [
        {
          "internalType": "address",
          "name": "addr",
          "type": "address"
        }
      ],
      "name": "getBalance",
      "outputs": [
        {
          "internalType": "uint256",
          "name": "",
          "type": "uint256"
        }
      ],
      "stateMutability": "view",
      "type": "function"
    },
    {
      "inputs": [],
      "name": "getOwner",
      "outputs": [
        {
          "internalType": "address",
          "name": "",
          "type": "address"
        }
      ],
      "stateMutability": "view",
      "type": "function"
    },
    {
      "inputs": [],
      "name": "getTransactionsCount",
      "outputs": [
        {
          "internalType": "uint256",
          "name": "",
          "type": "uint256"
        }
      ],
      "stateMutability": "view",
      "type": "function"
    },
    {
      "inputs": [
        {
          "internalType": "address payable",
          "name": "receiver",
          "type": "address"
        },
        {
          "internalType": "uint256",
          "name": "amount",
          "type": "uint256"
        },
        {
          "internalType": "string",
          "name": "remark",
          "type": "string"
        }
      ],
      "name": "sendMoney",
      "outputs": [
        {
          "internalType": "bool",
          "name": "success",
          "type": "bool"
        }
      ],
      "stateMutability": "nonpayable",
      "type": "function"
    }
  ],
  "bytecode": "0x608060405234801561001057600080fd5b50600080546001600160a01b03191633908117825532825260026020526040909120903190556107a9806100456000396000f3fe608060405234801561001057600080fd5b50600436106100575760003560e01c8063125c5df71461005c57806327506f5314610084578063578cb8f914610099578063893d20e8146100ab578063f8b2cb4f146100c6575b600080fd5b61006f61006a3660046104e4565b6100ef565b60405190151581526020015b60405180910390f35b61008c610306565b60405161007b91906105f7565b6001545b60405190815260200161007b565b6000546040516001600160a01b03909116815260200161007b565b61009d6100d43660046104c8565b6001600160a01b031660009081526002602052604090205490565b600080546001600160a01b0316815260026020526040812054831115610117575060006102ff565b600080546001600160a01b03168152600260205260408120805485929061013f9084906106dd565b90915550506001600160a01b0384166000908152600260205260408120805485929061016c9084906106c5565b92505081905550600180600082825461018591906106c5565b90915550506040805160a081018252600080546001600160a01b039081168352878116602080850191825294840188815260608501888152426080870152600380546001810182559552855160059095027fc2575a0e9e593c00f959f8c92f12db2869c3395a3b0502d05e2516446f71f85b810180549686166001600160a01b031997881617815593517fc2575a0e9e593c00f959f8c92f12db2869c3395a3b0502d05e2516446f71f85c8201805491909616961695909517909355517fc2575a0e9e593c00f959f8c92f12db2869c3395a3b0502d05e2516446f71f85d840155905180519394919361029f937fc2575a0e9e593c00f959f8c92f12db2869c3395a3b0502d05e2516446f71f85e0192919091019061042f565b50608082015181600401555050836001600160a01b0316336001600160a01b03167fc4b32d7ff75a51e487f3cbb5d3202f2efecca1f4c2b987e0039c1d3220b48a838585426040516102f39392919061069c565b60405180910390a35060015b9392505050565b60606003805480602002602001604051908101604052809291908181526020016000905b828210156104265760008481526020908190206040805160a0810182526005860290920180546001600160a01b0390811684526001820154169383019390935260028301549082015260038201805491929160608401919061038b906106f4565b80601f01602080910402602001604051908101604052809291908181526020018280546103b7906106f4565b80156104045780601f106103d957610100808354040283529160200191610404565b820191906000526020600020905b8154815290600101906020018083116103e757829003601f168201915b505050505081526020016004820154815250508152602001906001019061032a565b50505050905090565b82805461043b906106f4565b90600052602060002090601f01602090048101928261045d57600085556104a3565b82601f1061047657805160ff19168380011785556104a3565b828001600101855582156104a3579182015b828111156104a3578251825591602001919060010190610488565b506104af9291506104b3565b5090565b5b808211156104af57600081556001016104b4565b6000602082840312156104d9578081fd5b81356102ff8161075b565b6000806000606084860312156104f8578182fd5b83356105038161075b565b925060208401359150604084013567ffffffffffffffff80821115610526578283fd5b818601915086601f830112610539578283fd5b81358181111561054b5761054b610745565b604051601f8201601f19908116603f0116810190838211818310171561057357610573610745565b8160405282815289602084870101111561058b578586fd5b82602086016020830137856020848301015280955050505050509250925092565b60008151808452815b818110156105d1576020818501810151868301820152016105b5565b818111156105e25782602083870101525b50601f01601f19169290920160200192915050565b60006020808301818452808551808352604092508286019150828160051b870101848801865b8381101561068e57888303603f19018552815180516001600160a01b039081168552888201511688850152868101518785015260608082015160a0828701819052919061066c838801826105ac565b608094850151979094019690965250509487019492509086019060010161061d565b509098975050505050505050565b8381526060602082015260006106b560608301856105ac565b9050826040830152949350505050565b600082198211156106d8576106d861072f565b500190565b6000828210156106ef576106ef61072f565b500390565b600181811c9082168061070857607f821691505b6020821081141561072957634e487b7160e01b600052602260045260246000fd5b50919050565b634e487b7160e01b600052601160045260246000fd5b634e487b7160e01b600052604160045260246000fd5b6001600160a01b038116811461077057600080fd5b5056fea2646970667358221220759726d5d3b974615477cfc039c1f7dd28ee906901d604a1813d36d50b4459da64736f6c63430008040033",
  "linkReferences": {},
  "deployedLinkReferences": {}
}